:020000040800F2
:10000000382C0020010100087F1500086114000849
:100010007D150008C3010008692E000800000000DB
:1000200000000000000000000000000005190008AA
:1000300091020008000000000319000807190008D9
:100040001B0100081B0100081B0100081B01000820
:100050001B0100081B0100081B0100081B01000810
:100060001B0100081B0100081B0100081B01000800
:100070001B0100081B0100081B0100081B010008F0
:100080001B0100081B0100081B0100081B010008E0
:10009000012E00081B0100081B0100081B010008BD
:1000A0001B010008D51900081B0100081B010008EE
:1000B0001B0100081B0100081B0100081B010008B0
:1000C0001B0100081B0100081B0100081B010008A0
:1000D0001B0100081B0100081B0100081B01000890
:1000E0001B0100081B0100081B010008DFF80CD0F1
:1000F00000F02AF800480047352F0008382C00206F
:100100000648804706480047FEE7FEE7FEE7FEE7B1
:10011000FEE7FEE7FEE7FEE7FEE7FEE78D190008D3
:10012000ED00000840EA01039B0703D009E008C97D
:10013000121F08C0042AFAD203E011F8013B00F8AC
:10014000013B521EF9D27047064C074D06E0E068AD
:1001500040F0010394E8070098471034AC42F6D30E
:10016000FFF7C8FF183000083830000870B58C1849
:1001700010F8015B15F0070301D110F8013B2A11BB
:1001800006D110F8012B03E010F8016B01F8016BA8
:100190005B1EF9D12B0705D40023521E0DD401F8A4
:1001A000013BFAE710F8013BCB1A921C03E013F86D
:1001B000015B01F8015B521EF9D5A142D8D30020A2
:1001C00070BDFEE7002070470020704710B5002288
:1001D0000449054801F0FCFD0449034801F0F2FD23
:1001E000002010BDB425002010020020B40C002017
:1001F00038B5174C2078302812D0086840281DD315
:10020000154C1448217800EB8111144801F0DAFDF7
:1002100020786421401CB0FBF1F201FB120010E0D9
:100220000FA0022100680090684600F01BF86120D2
:1002300020700849094801F0C5FD03E0042801D1F8
:1002400030202070054801F0A1FD002038BD0000DD
:100250005C000020B40C00204A00002010020020A6
:1002600068000000094A10B5D2F81822D2F814220A
:100270000AB1012010BD0A460146044801F0A8FD5C
:10028000BDE81040014801F0E3BD0000100200206D
:10029000704700002DE9F84FDFF890A100220AF125
:1002A000040B144601274FF00F090BF1040E00BF99
:1002B0000B6807FA04F52B40AB4274D1DFF870C12C
:1002C0004E68A6EB0C0866452BD00DDC032E34D00F
:1002D00005DC36B3012E19D0022E2FD11BE0112ED2
:1002E00016D0122E2AD119E0B8F5881F19D006DCD5
:1002F000B8F5803F15D0B8F5801F1FD111E0B8F5D3
:10030000001F0ED0B8F5041F18D10AE0CA6815E026
:10031000CA68121D12E0CA6808320FE0CA680C32BF
:100320000CE08A682AB1012A4FF0080203D0456127
:1003300004E0042202E0056100E00022FF2B01D866
:10034000064601E000F104064FEA840501D9A5F153
:100350002005D6F800C009FA05F82CEA080C02FAC4
:1003600005F54CEA050CC6F800C04D68ED0057D500
:10037000304DAE6946F00106AE61AD6924F003066A
:1003800005F0010500952C4D06EB050CDCF8085036
:10039000A6074FEA167809FA08F6B543274EB04289
:1003A00002D1002610E03BE0254EB04201D10126EB
:1003B0000AE0244EB04201D1022605E0224EB042AE
:1003C00001D1032600E0042606FA08F62E43CCF8F5
:1003D00008604D68DAF80060ED03554601D51E430C
:1003E00000E09E432E604D68DBF80060AD035D4683
:1003F00001D51E4300E09E432E604D68DEF800608C
:10040000ED02754601D51E4300E09E432E604D6807
:10041000AD020E4D2E6801D51E4300E09E432E60B6
:10042000641C102CFFF444AFBDE8F88F00040140B9
:1004300000001110001002400000014000080140BF
:10044000000C014000100140001401400C04014068
:1004500001488068704700006800002002488168F9
:10046000027811448160704768000020074810B589
:10047000016841F010010160032000F09DF80020A8
:1004800000F006F800F024F8002010BD0020024023
:1004900070B50D4D04464FF47A712878B1FBF0F039
:1004A0000A490968B1FBF0F000F0D3FD48B9102CFF
:1004B00007D200222146501E00F05EF800206C603A
:1004C00070BD012070BD0000680000207400002095
:1004D000214808B5816941F001018161816901F01C
:1004E00001010091C16941F08051C161C06900F012
:1004F00080500090032000F05FF8002211466FF05A
:100500000B0000F039F8002211466FF00A0000F0ED
:1005100033F8002211466FF0090000F02DF8002298
:100520001146501F00F028F800221146101F00F05D
:1005300023F800221146901E00F01EF800221146FA
:10054000501E00F019F80548416821F0E06141F0C3
:100550000071416008BD0000001002400000014031
:1005600000F01F02012191404009800000F1E020CD
:10057000C0F8001170470000F0B40E4B1B680C4629
:10058000C3F30223C3F10705042D00D90425191D67
:10059000072901D2002300E0DB1E012606FA05F13F
:1005A000491E214099409E40761E16403143F0BCC2
:1005B00000F0E6BF0CED00E0064900F00702086815
:1005C0004FF6FF03184040EA0220034A1043086038
:1005D000704700000CED00E00000FA0510B50C06B5
:1005E00005D501F07F0100EB4110283003E000EB5E
:1005F000411000F50A7099B232B101228272C180B5
:10060000190C0181002010BD002282728180F9E75F
:10061000704700EB4112D0F85C04D26B01F0B6BD1C
:1006200000EB4112D0F85C04D2F83C2201F003BE8A
:1006300010B504460A460B0601F07F0004EB40119A
:1006400001D5283101E001F50A710870D009487020
:1006500094F82804012809D0012084F8280420688F
:1006600002F0EAF9002084F8280410BD022010BD31
:1006700070B50A460446090602F07F0003D504EB74
:100680004011283103E004EB421101F50A71002505
:100690008D700870D009487094F82804012809D09A
:1006A000012084F82804206802F074FA84F82854A1
:1006B000002070BD022070BD01F00F0100EB411061
:1006C000B0F8440280B2704770B504460D460E067D
:1006D00001F07F0004EB401101D5283101E001F564
:1006E0000A710870E80948700A61CB7094F8280410
:1006F000012809D0012084F82804206802F06CF851
:10070000002084F8280470BD022070BD70B50C462E
:1007100001F07F0500EB4511C1E98F230022C1F8EC
:10072000442281F8292281F8285201F50A716206D3
:10073000006802F089FA002070BD70B50D460446CD
:10074000090605F07F0003D504EB4011283103E0D2
:1007500004EB451101F50A7101228A700870E8095D
:10076000487094F82804012807D084F828242068C9
:1007700002F045FA680602D006E0022070BD04F2DD
:100780002C41206802F004FA002084F8280470BD8F
:1007900070B50C4601F07F0500EB4511C1E90F2350
:1007A00000224A64012281F8292001F8285F6206AC
:1007B000006802F049FA002070BD10B504460068D8
:1007C00002F024FB000402D5204600F0E9FE206878
:1007D00002F01CFB40050CD5206830F8441F21F4C2
:1007E00080610180204600F0EDF80021204600F0F5
:1007F000FEF8206802F00AFB400405D5206830F8B6
:10080000441F21F480410180206802F0FFFA800437
:1008100005D5206830F8441F21F40051018020687C
:1008200002F0F4FAC00414D5206830F8401F21F01B
:1008300004010180206830F8401F21F00801018088
:10084000204600F0CCF8206830F8441F21F4805195
:100850000180206802F0DAFA00051AD5206830F825
:10086000401F41F008010180206830F8441F21F446
:1008700000610180206830F8401F41F004010180D0
:10088000206802F0C3FAC043C00402D5204600F03D
:10089000E3F8206802F0BAFA800508D5206830F83D
:1008A000441F21F400710180204600F09CF820686C
:1008B00002F0ACFAC00505D5206830F8441F21F4D9
:1008C0008071018010BD00002DE9F04186B0040068
:1008D0004FF0000504D094F82904002620B108E068
:1008E000012006B0BDE8F08184F82864204600F0BD
:1008F0004BF8032084F82904206802F042F904F13F
:100900001001142288466846FFF70CFC94E80F009B
:1009100002F090F80021206802F08BFA5FF00107E6
:1009200004EB451080F8297000F8285F8581C670B7
:10093000066146616D1C86610F2DF1D35FF00000EA
:1009400004EB401181F8296281F82802888681F839
:100950002B62C1F83862C1F83C62401CC1F84062A9
:100960000F28EDD3142241466846FFF7DBFB94E8DD
:100970000F0002F0F7F884F8246084F829742068E6
:1009800002F0EEF80020ACE708B500680B49884299
:1009900012D10B48C16941F40001C161C069002254
:1009A00000F40000009011461420FFF7E5FDBDE8BB
:1009B00008401420FFF7D4BD08BD0000005C0040D3
:1009C0000010024010B504460121D0F85C0401F08B
:1009D0001DFDD4F85C04BDE8104001F0E6BCD0F881
:1009E0005C0401F001BDD0F85C0401F003BD10B55A
:1009F000044690F8280401280BD0012084F828042C
:100A000084F82410206802F016FA002084F82804E4
:100A100010BD022010BDD0F85C2400F22C4110461D
:100A200001F007BD10B5044690F82804012810D045
:100A3000012084F8280401462046FFF7E9FD2068DC
:100A400002F08CF8206802F0D4F9002084F8280421
:100A500010BD022010BD000010B50446D0F85C04A3
:100A600001F034FDA069002804D00348016841F07A
:100A70000601016010BD000010ED00E02DE9F84313
:100A800005460078354CC00754D0E0690026C00008
:100A900008D4E06940F08050E061E069012600F090
:100AA000805000902E480168C90512D40168804624
:100AB00041F480710160FFF7CBFC074605E000BF01
:100AC000FFF7C6FCC01B642823D8D8F80000C00577
:100AD000F6D5206A10F4407021D0A98801F4407145
:100AE00081421CD0206A1F49012220F440700A6014
:100AF00000220A602062C00711D0FFF7A9FC074658
:100B000041F2883808E000BFFFF7A2FCC11B414555
:100B100002D90320BDE8F883206A8007F4D5206A53
:100B2000696820F44070084320621EB1E06920F03B
:100B30008050E0612878800705D56068A96820F4B6
:100B40004040084360602878C00605D56068E968C1
:100B500020F48000084360600020DBE700100240C2
:100B600000700040400442422DE9F047DFF83C812C
:100B700005460E46D8F8000000F00700B0420CD23F
:100B8000D8F8001021F007013143C8F80010D8F858
:100B9000000000F00700B04263D12878444C800781
:100BA00005D56068A96820F0F000084360602878E7
:100BB000C00745D06868012816D02168022816D0E1
:100BC000890700294DDA616821F003010143616062
:100BD000FFF73EFC6968074641F2883001290FD0D3
:100BE0000229814619D027E021688903E9E78901B4
:100BF000E7E700BFFFF72CFCC11B494501D918E00E
:100C000081466068C0F381000128F3D118E000BF7D
:100C1000FFF71EFCC11B49450BD86068C0F381007B
:100C20000228F5D10CE000BFFFF712FCC11B4945BB
:100C300002D90320BDE8F087606810F00C0FF3D1F3
:100C4000D8F80010404601F00701B1420BD9016805
:100C500021F0070131430160006800F00700B04255
:100C600001D00120E6E72878400705D56068E968EB
:100C700020F4E060084360602878000706D56068CB
:100C8000296920F4605040EAC100606000F01CF85F
:100C90006168084AC1F30311515CC8400649086005
:100CA0000020FFF7F5FB0020C4E700000020024011
:100CB000001002400830000874000020014800685D
:100CC000704700007400002012A185B00FC98DE8A4
:100CD0000F0014A0144A006804905168134801F0F2
:100CE0000C03042B10D0082B0ED1C1F38343C9038E
:100CF0001DF803000AD5516804AAC1F34041515CB4
:100D00000A4A5043B0FBF1F005B070470849484328
:100D1000FAE7000002030405060708090A0B0C0D98
:100D20000E0F1010010200000010024000127A00A5
:100D300000093D002DE9F84F04460078B94DC00781
:100D400048D06868C0F38100012807D06868C0F304
:100D50008100022809D16868C00306D5286880038D
:100D600038D5606800286FD034E06068B0F5803F07
:100D70000BD010B1B0F5A02F11D0286820F480302E
:100D80002860286820F4802002E0286840F4803041
:100D90002860606888B1FFF75BFB064609E02868B9
:100DA00040F480202860F0E7FFF752FB801B6428A6
:100DB00075D828688003F7D50CE0FFF749FB064695
:100DC00005E000BFFFF744FB801B6428F0D82868CB
:100DD0008003F7D42078944E80074FF001094FF03C
:100DE00000083BD5686810F00C0F07D06868C0F3A6
:100DF0008100022809D16868C00306D428688007EA
:100E000014D5206901281FD110E02069B0B1C6F8BF
:100E10000090FFF71DFB074605E000BFFFF718FB3A
:100E2000C01B0228C4D828688007F7D528686169E4
:100E300020F0F80040EAC10028600FE0C6F800800A
:100E4000FFF706FB074606E0E9E000BFFFF700FBFF
:100E5000C01B022823D828688007F7D42078000711
:100E60002CD57248A169D9B1C0F80090FFF7F0FA0B
:100E7000074604E0FFF7ECFAC01B02280FD8686AA7
:100E80008007F7D56A484FF4FA510068B0FBF1F0DB
:100E9000009000BF0098411E0091FAD20EE080E061
:100EA000C0F80080FFF7D4FA074604E0FFF7D0FA55
:100EB000C01B022875D8686A8007F7D420784007DD
:100EC00060D5E8690027C00008D4E86940F0805088
:100ED000E861E869012700F08050009055480168FA
:100EE000C90513D40168834641F480710160FFF79E
:100EF000AFFA824606E000BFFFF7AAFAA0EB0A00AD
:100F000064284ED8DBF80000C005F5D5E06801285C
:100F10000AD008B1052813D0286A20F00100286201
:100F2000286A20F0040002E0286A40F001002862EC
:100F3000E06841F2883B98B1FFF78AFA82460BE0FD
:100F4000286A40F004002862EEE700BFFFF780FA4D
:100F5000A0EB0A0159455AD8286A8007F6D50CE05B
:100F6000FFF776FA824605E0FFF772FAA0EB0A0176
:100F700059454CD8286A8007F6D41FB1E86920F09B
:100F80008050E861E06988B36968C1F38101022992
:100F900045D00228C6F8608004D0FFF759FA04460D
:100FA00038E034E0FFF754FA074604E0FFF750FA60
:100FB000C01B02282BD828688001F7D4206AB0F51E
:100FC000803F05D16868A16820F40030084368605C
:100FD000D4E908010843696821F474110843686082
:100FE000C6F86090FFF734FA044606E015E000BF4B
:100FF000FFF72EFA001B022809D828688001F7D5D0
:101000000BE000BFFFF724FA001B022802D90320DF
:10101000BDE8F88F28688001F4D40020F8E70120AB
:10102000F6E7000000100240000042428004424205
:1010300074000020007000404FF0E021042808698F
:1010400003D020F004000861704740F00400FAE784
:10105000704710B5401EB0F1807F01D3012010BD54
:101060004FF0E02460610F21601700F089FA002042
:10107000A06107202061002010BD10B5FFF7E8FF38
:1010800010BD7047704710B590F83C20012A25D05C
:10109000012280F83C20CA688C6822F44072224306
:1010A0004C6822F4806222430C6822F400622243DE
:1010B0000C6922F4805222434C6922F400522243EC
:1010C0008C6922F48042224322F40041026800230A
:1010D0002143516480F83C30002010BD022010BD37
:1010E00030B590F83C20012A20D0012280F83C2025
:1010F000022380F83D3003685C6824F070045C6073
:1011000003685C680D682C435C6003689C6824F08D
:1011100080049C6003689C6849680C439C6080F86C
:101120003D20002180F83C10084630BD022030BD33
:10113000704770B50446006801694FF00005C94367
:10114000890715D4C168C943890711D4E91E016113
:1011500001202077206880698007204602D0FFF7B1
:10116000E7FF04E000F0B4F8204600F05DF92577D1
:1011700020680169C943490717D4C168C9434907B1
:1011800013D46FF004010161022020772068806988
:1011900010F4407F204602D0FFF7CAFF04E000F0C1
:1011A00097F8204600F040F9257720680169C94387
:1011B000090716D4C168C943090712D46FF00801A2
:1011C0000161042020772068C0698007204602D092
:1011D000FFF7AEFF04E000F07BF8204600F024F9B2
:1011E000257720680169C943C90617D4C168C94376
:1011F000C90613D46FF01001016108202077206820
:10120000C06910F4407F204602D0FFF791FF04E050
:1012100000F05EF8204600F007F9257720680169A4
:10122000C943C90708D1C168C943C90704D1891E88
:101230000161204600F012F920680169C9430906DE
:1012400009D4C168C943090605D46FF08001016162
:101250002046FFF716FF20680169C943490609D4F3
:10126000C168C943490605D46FF0400101612046B9
:1012700000F0F5F820680169C94389060BD4C168FC
:10128000C943890607D46FF0200101612046BDE8FB
:101290007040FFF7F7BE70BD1FB50B4B026802210F
:1012A0000A489A4204D18215CDE90021032105E0C4
:1012B000B2F1804F06D10122CDE9002103916946A8
:1012C000FEF7E8FF1FBD0000002C014000080140B0
:1012D000704770B5044690F83C000D4601280DD0CB
:1012E000012684F83C60022084F83D0042B1042AC3
:1012F00018D0082A2AD00C2A4DD139E0022070BD1E
:10130000206800F0F3FB2068816941F008018161E9
:101310002068816921F004018161206881692A695E
:10132000114311E0206800F009FC2068816941F454
:10133000006181612068816921F480618161206898
:1013400081692A6941EA0221816124E0206800F074
:1013500021FC2068C16941F00801C1612068C169B0
:1013600021F00401C1612068C1692A69114311E0BB
:10137000206800F03BFC2068C16941F40061C16154
:101380002068C16921F48061C1612068C1692A694E
:1013900041EA0221C16184F83D60002084F83C00EC
:1013A00070BD10B5040003D094F83D0010B107E003
:1013B000012010BD002084F83C00204600F00CF80D
:1013C000022084F83D00211D206800F04DFB012023
:1013D00084F83D00002010BD08B5114A016811488D
:1013E000914211D1816941F40061816180690022DB
:1013F00000F40060009011461920FFF7BDF8BDE829
:1014000008401920FFF7ACB8B1F1804F07D1C1698E
:1014100041F00101C161C06900F00100009008BD08
:10142000002C0140001002407047000010B5044637
:101430000068012200F04EFB07492068884203D172
:10144000416C41F4004141642068016841F00101B0
:101450000160002010BD0000002C01407047704763
:10146000FEE7000010B51F4890B01D490024C0E9F8
:1014700000142021C0E90241046144618461FFF746
:1014800090FF00B1FEE70E940EA916480F94FFF7E7
:1014900027FE00B1FEE76020CDE90004042002949D
:1014A000CDE903400594002269460E480694FFF7F3
:1014B00010FF00B1FEE70794089409944FF4005020
:1014C0000A94CDE90B4007A906480D94FFF7DBFD10
:1014D00000B1FEE70348FFF7DFFE10B010BD0000CB
:1014E000002C01409001002010B515488AB04FF043
:1014F00080410024C0E900141B21C0E902410461BD
:101500008461FFF74EFF00B1FEE7079407A90C487E
:101510000894FFF7E5FD00B1FEE7602000900D2084
:10152000CDE9010404200490002269460448FFF735
:10153000D0FE00B1FEE70248FFF7AEFE0AB010BDD4
:10154000D001002010B500220849094800F0E9FD4B
:101550000849074800F0E7FF0749054800F02AFC62
:10156000BDE81040024801F02BB800001800002030
:1015700010020020580100204C000020FEE77047B8
:101580000907090E002806DA00F00F0000F1E0203C
:1015900080F8141D704700F1E02080F800147047B7
:1015A0002DE9FC5F4FF000080446ADF80480ADF86B
:1015B000008048F60F7B4FF002094FF4806692E1FD
:1015C000BDF8041011F00F072BD030F82710ADF83C
:1015D0000010BDF80010090478D530F8272040F637
:1015E0008F710A4020F8272004EB471595F8320246
:1015F00005F50A750028206869D0297830F821207F
:1016000052047DD5B0F8503009EBC101194406EB06
:101610004101415AC1F309015FEA010A71D0EA8828
:10162000D0E0BDF80410C9062AD4018801EA0B01F4
:101630000180206804F12805B0F850202B7809EBD0
:10164000C301114406EB4101405AC0F30900606434
:10165000E16B0844E06300212046FEF7DAFF94F8CE
:1016600024000028ABD0A8690028A8D194F8240051
:10167000216840F08000A1F84C0084F8248032E119
:10168000018804F50A75ADF80010BDF800100905D1
:101690001ED5B0F850302978062202EBC10119445A
:1016A00006EB4101405A04F22C41C0F30903EB61FF
:1016B000AA88206801F0AEFB2068018840F68F728E
:1016C000114001802046FFF7A6F90CE1A0E055E0AB
:1016D000BDF800100904D2D5028840F68F710A4087
:1016E00002802068B0F850302978062202EBC10150
:1016F000194406EB4101405A83059B0DEB6101E063
:1017000051E063E008D0AA886969206801F082FB93
:10171000E96968690844686100212046FEF780FF96
:101720002068B0F85010891D06EB4101014428697A
:101730003E280CD9C0F34F12C00601D1521E92B2FE
:101740004FF6FF7000EA822040F4004009E0C0F349
:101750004F02C00701D0521C92B24FF6FF7000EA50
:1017600082200860216808884BF68F72104080F450
:10177000405048F2800210430880B4E0B0F8502096
:101780002B78062101EBC301114406EB4101415ABC
:10179000C1F309015FEA010A24D0AA8853466969A6
:1017A00001F038FB1EE0B0F85020062303EBC10126
:1017B000114406EB4101415AC1F309015FEA010AF4
:1017C00004D02A895346696901F024FB29782068EE
:1017D00030F8213048F68F72134048F2C0021343AC
:1017E00020F82130E96901EB0A00E861696901EB41
:1017F0000A026A61AB6913B12869504504D9297896
:101800002046FEF70DFF03E029782046FEF77EFF15
:10181000BDF80000000666D5206804EB471530F8D7
:10182000271001EA0B0120F8271095F8320028351F
:101830000028206812D0297830F82120B0F85030E4
:1018400052061ED509EBC101194406EB4101405A6D
:1018500083059B0DEB6124D0EA881EE0B0F8503080
:101860002A7809EBC201194406EB4101405A83056D
:101870009B0DEB6121D0AA886969206801F0E1FA2B
:101880001BE0062202EBC101194406EB4101405A5C
:1018900083059B0DEB6104D02A896969206801F0FA
:1018A000D0FA2978206830F8212048F68F731A4042
:1018B0004CF280031A4320F821202068B0F8502011
:1018C0002B7809EBC301114406EB4101405AC0F3E8
:1018D0000900E86169690A186A612978AB692046DC
:1018E00063B1FEF755FF2068B0F84410ADF804105E
:1018F00009043FF565AE0020BDE8FC9FFEF789FEB8
:10190000F1E77047704710B5FEF7A8FDBDE810403D
:10191000FFF7B3BB30B593B001210804CDE9001047
:101920000024029402250491CDE907504FF4E01001
:1019300009906846FFF7FEF900B1FEE70F20CDE9F8
:101940000A054FF48060CDE90C4002210AA80E94EC
:10195000FFF70AF900B1FEE710200F9012940FA8CC
:10196000FFF78CF800B1FEE7FFF7A8F94FF47A71A2
:10197000B0FBF1F0FFF76DFB0420FFF75DFB0022E9
:101980001146501EFEF7F8FD13B030BD0D4801683A
:1019900041F00101016041680B4A1140416001685A
:1019A0000A4A11400160016821F480210160416808
:1019B00021F4FE0141604FF41F0181600449C0031E
:1019C00008607047001002400000FFF8FFFFF6FEBD
:1019D00008ED00E01E4810B503781E4A0021302BA8
:1019E00021D01D4B846803EB841344681B5D1B4CA2
:1019F000246863431A4C9B012468640193FBF4F34D
:101A000013604268521C42604268402A03D341601E
:101A10008268521C82608268642A00D381604168B7
:101A2000890602D00FE011600DE08168613101701C
:101A300080680A21B0FBF1F201FB120018B9012104
:101A40000348FEF70FFCBDE810400648FFF771BBE6
:101A50005C000020342C0140B40C00200C0000205D
:101A60000430000890010020F0B50268164B174CB6
:101A7000174D4FF08047984205D0B84203D0A0429E
:101A800001D0A84203D122F070064A68324398423E
:101A900005D0B84203D0A04201D0A84203D122F41D
:101AA0004074CA68224322F080044A6922430260DB
:101AB0008A68C2620A688262984201D10969016338
:101AC00001214161F0BD0000002C014000040040F4
:101AD0000008004010B50123046A8B409C43046257
:101AE000036A8A401343036210BD000030B5026AE6
:101AF00022F001020262026A4368846924F07305DD
:101B00000C682C4322F002058A682A430A4DA84239
:101B10000BD122F00805CA6823F440732A434D69AB
:101B200022F004021D438B692B43436084614968A2
:101B30004163026230BD0000002C014030B5026AF2
:101B400022F010020262026A436884690D6824F47C
:101B5000E64444EA05248D6822F0200242EA051298
:101B60000B4DA8420ED1CD6822F0800242EA051248
:101B70004D6923F4406343EA85038D6922F04002F6
:101B800043EA85034360846149688163026230BD32
:101B9000002C014030B5026A22F480720262036AAE
:101BA0004268C46923F4007324F073050C682C4365
:101BB0008D6843EA05230C4DA8420ED1CD6823F46D
:101BC000006343EA05234D6922F4405242EA0512BC
:101BD0008D6923F4806342EA05124260C46149685A
:101BE000C163036230BD0000002C014030B5026AC1
:101BF00022F480520262046A4268C3690D6823F4C9
:101C0000E64343EA05238D6824F4005444EA05348E
:101C1000064DA84204D14D6922F4804242EA851261
:101C20004260C36149680164046230BD002C014018
:101C3000D0F8180220B10021C0F8141208467047ED
:101C40000220704770B50546D0F8184200F028FB16
:101C5000C4F80C02D5F8180248B1D5F81C12D4F813
:101C60000402CA6804F503719047002070BD022089
:101C700070BD70B504460025812100F077FA01217E
:101C8000204600F073FA8221204600F06FFAD4F863
:101C9000180250B1D4F81C0204F50674406880475D
:101CA000206800F093FD00202060284670BD10B52C
:101CB000D0E9864159B194F80002FF2807D08B681B
:101CC00094F8012221469847FF2084F80002002062
:101CD00010BD00000A2101800048704780000020EC
:101CE0004321018000487047D0000020432101803B
:101CF000004870478C000020432101800048704755
:101D0000140100202DE9F0410446007C00254FF429
:101D1000007670B3402302228121204600F022FB8E
:101D2000402302220121204600F01CFB082303224D
:101D30008221204600F016FB4FF4077000F048FDAA
:101D4000C4F81802F0B10746D4F81C0200688047B6
:101D50000020C7F81402C7F81802207CD7F8042224
:101D600090B140230121204600F00FFB2846BDE83A
:101D7000F081FFE7334602228121204600F0F2FA8B
:101D80003346CEE70125F1E73346EBE710B5D0F84F
:101D9000181269B1027C002AD1F8042205D0402330
:101DA000012100F0F2FA002010BD4FF40073F7E7B4
:101DB000022010BD02460220002902D00020C2F8F5
:101DC0001C127047D0F81802C0F8041200207047A7
:101DD000D0F81802C0F81022C0F80812002070478E
:101DE00070B50646D0F8185208780C4610F060011D
:101DF00021D0202927D1E288AAB10006607807D532
:101E0000D6F81C128B6829469847E288294617E0C5
:101E100085F80002A07985F80102E288294630465B
:101E200000F050F80FE0D6F81C12607800228B68A2
:101E30002146984707E060780A2804D10349012227
:101E4000304600F059F8002070BD00007C000020F2
:101E500010B5D0F8181289B1D1F814220AB10120B6
:101E600010BD0122C1F81422B1F8102293B2D1F8AA
:101E70000822812100F033FB002010BD022010BD9C
:101E800010B5D0F8142252689047002010BD1346B8
:101E900010B50A46002100F078FA002010BD134664
:101EA00010B50A46002100F01AFB002010BD10B545
:101EB0000446802100F0EAFA2046BDE810400021E7
:101EC00000F0E4BA10B50323C0F80821C0F8F431DB
:101ED000C0F80C2113460A46002100F056FA0020F3
:101EE00010BD10B505210023C0F8F4111A4619469B
:101EF00000F04BFA002010BD10B502238261C0F83B
:101F0000F431C26113460A46002100F0E8FA0020CD
:101F100010BD10B504210023C0F8F4111A4619466B
:101F200000F0DDFA002010BD10B50A46024903A0FA
:101F300000F0D4F8004810BDB40A00204344432008
:101F4000436F6E6669670000122008800048704782
:101F50003800002010B50A46024903A000F0BEF880
:101F6000004810BDB40A002043444320496E746504
:101F700072666163650000000420088000487047B5
:101F80003400002010B50A46024903A000F0A6F86C
:101F9000004810BDB40A002053544D6963726F6548
:101FA0006C656374726F6E696373000010B50A46E6
:101FB000024903A000F092F8004810BDB40A0020C6
:101FC00053544D3332205669727475616C20436FDF
:101FD0006D506F727400000010B50A46024903A0EC
:101FE00000F07CF8004810BDB40A002030303030DA
:101FF000303030303030314100000000F8B5044658
:1020000048880D46010A08294BD2DFE801F04A044E
:1020100009174A4A4048D4F81012207C0A6832E076
:10202000207C02260028D4F8140205D0C16A684634
:1020300088470146467041E0816AF8E7C0B2062849
:102040002FD2DFE800F003080D12171CD4F810128D
:10205000207C4A6817E0D4F81012207C8A6812E0CD
:10206000D4F81012207CCA680DE0D4F81012207C3D
:102070000A6908E0D4F81012207C4A6903E0D4F819
:102080001012207C8A6969469047014616E0207C40
:1020900038B9D4F81402416B68468847F5E7207CCC
:1020A00020B129462046FFF702FFF8BDD4F81402FC
:1020B000016B68468847014607204870BDF800005C
:1020C0000028F2D0EA88002AEFD0824200D90246E6
:1020D000ADF800202046FFF70FFFF8BD70B50023D4
:1020E00000281DD00446002502E06D1CEDB2641CE2
:1020F0002678002EF9D1022404EB45041480CC5438
:102100005B1C0322CA5400245B1C06E0CA545B1CFF
:10211000DAB28C54521CD3B2401C0278002AF5D19A
:1021200070BD10B580B1D0F8143213B10023C0F8DF
:10213000143209B1C0F81012012180F8FC110270AC
:1021400000F0B2F8002010BD022010BD10B5002430
:10215000D0F82002FEF78CFA30B1012801D0022815
:1021600001D0022400E00124204610BD10B5002457
:10217000D0F82002FEF75CFA30B1012801D0022825
:1021800001D0022400E00124204610BD2DE9F041D9
:102190001746044641B1D4F8140242698AB394F850
:1021A000FC01032842D043E0D4F8F411002504F1E7
:1021B0001400022933D1D0E902639E4207D9F31AF1
:1021C00083609AB239462046FFF769FE12E0406804
:1021D000B0FBF3F103FB1101A1B9984212D3D4F87B
:1021E000F81188420ED2002211462046FFF757FE12
:1021F000C4F8F85100231A461946204600F0C5F8E5
:102200000DE012E0D4F81402C16829B194F8FC0181
:10221000032801D1204688472046FFF762FE94F844
:102220000002012804D184F8005201E020469047C2
:102230000020BDE8F08170B51546044641B1D4F8E0
:10224000140282693AB394F8FC01032824D025E0F3
:10225000D4F8F41104F5827003291FD1D0E90221CA
:102260008A420BD9531A83600846834200D303463F
:102270009AB229462046FFF70AFE0FE0D4F814026E
:10228000016929B194F8FC01032801D1204688474F
:102290002046FFF73EFE01E020469047002070BD3B
:1022A000D0F82002FEF708BA10B520490446C1F85C
:1022B0005C04C0F820121E48086008204860022014
:1022C00088600320C86000208861C86108620846F1
:1022D000FEF7FAFA20B14FF4977116A000F0C5FD91
:1022E0000022D4F820021823114604F50874FEF7E2
:1022F00075F95823002280212068FEF76FF9C0236A
:10230000002281212068FEF769F94FF488730022CA
:1023100001212068FEF762F94FF4807300228221C8
:102320002068FEF75BF9002010BD00005406002075
:10233000005C00402E2E2F5372632F757362645F12
:10234000636F6E662E6300000A06D0F8200201F06B
:102350007F0100EB411002D590F82A00704790F8F9
:102360002A02704770B51D4613460024D0F820029B
:102370002A46FEF7A9F930B1012801D0022801D080
:10238000022400E00124204670BD10B50024D0F8DE
:102390002002FEF7BBF930B1012801D0022801D09C
:1023A000022400E00124204610BD70B5002204463E
:1023B00040231146FFF7D6FF40252B4600228021FF
:1023C0002046C4F81051FFF7CDFF0120256284F8A4
:1023D000FC01D4F8180228B1D4F81402217942681B
:1023E00020469047002070BD90F8FD1180F8FC1148
:1023F0000020704710B590F8FC11032904D1D0F8E3
:102400001412C96901B18847002010BD0174002071
:10241000704710B50024D0F82002FEF7E8FA30B17A
:10242000012801D0022801D0022400E00124204626
:1024300010BD70B5044600F50270054600F05FF867
:102440000120C4F8F401B4F80E02C4F8F80194F8BD
:10245000080210F01F010AD001290DD0022910D066
:1024600000F08001204600F011F8002070BD2946E0
:10247000204600F0AAF8F8E72946204600F08CF93B
:10248000F3E72946204600F019F9EEE710B50024DD
:10249000D0F82002FEF751F930B1012801D002280E
:1024A00001D0022400E00124204610BD10B5002414
:1024B000D0F82002FEF7B6FA30B1012801D0022888
:1024C00001D0022400E00124204610BD90F8FC1148
:1024D00080F8FD11042180F8FC110020704710B530
:1024E0000024D0F82002FEF753F930B1012801D0C2
:1024F000022801D0022400E00124204610BD0A7801
:1025000002704A7842708A78CB7802EB03224280CC
:102510000A794B7902EB032282808A79C97902EB2E
:102520000121C18070470246002011B1C2F8141287
:1025300070470220704710B5D0F8142202241AB157
:102540001268904700B90024204610BD70B50E46B1
:102550001A4D897804462970012928D894F8FC017D
:10256000022802D0032822D105E099B1032061603E
:1025700084F8FC0109E091B1606888420AD0C1B2D8
:102580002046FFF77DFC297861602046FFF7D3FFE6
:1025900002280CD02046BDE87040FFF7BABC0220EC
:1025A00084F8FC0120466160FFF76AFCF2E73146DF
:1025B0002046BDE87040FFF77ABC0000780000209C
:1025C00010B5FFF773FF002010BD2DE9F041002684
:1025D0004B78012532460A2B43D2DFE803F03C5802
:1025E0004251420805422A27FFF708FD63E00446EE
:1025F0008888C8B9C888B8B9887800F07F0794F887
:10260000FC01032810D084F8FE7139462046FFF7FC
:1026100000FF2046FFF77DFC1FB1022084F8FC017B
:1026200049E084F8FC5146E020461AE0FFF78EFFAF
:1026300041E0CB88012B14D190F8FC31022B02D061
:10264000032B0ED104E08260012200F1080114E0A6
:102650000122011D11E090F8FC21022A04D0032A76
:1026600002D0FFF724FC26E0C560D0F8041209B1BF
:102670000321C160022200F10C01FFF73DFC1AE0CA
:1026800004464888012816D1C4F804520BE00446D9
:1026900090F8FC01022801D00328C5D14888012800
:1026A00009D1C4F80422D4F8140282682046904765
:1026B0002046FFF72EFC3046BDE8F08170B50D4690
:1026C0000446287800260979C0F34110012806D075
:1026D0006878A0B301281FD003283FD107E0D4F8C1
:1026E00014022946826820469047002070BD94F865
:1026F000FC01022817D003282CD1688828B921B101
:10270000802902D02046FFF7C1FED4F814022946E2
:1027100082682046904713E094F8FC01022802D01A
:10272000032817D103E0C9B180291BD116E06888BE
:10273000A0B9480604D02046FFF708FDE5E703E00E
:102740002046FFF7E6FB09E094F8FC01022807D0D9
:1027500003280BD029462046FFF7A9FB304670BD61
:102760004806FBD02046FFF791FEF7E7080601F088
:102770007F0004EB001501D5143501E005F58275E5
:102780002046FFF7E1FD00B1012028600222294622
:102790002046FFF7B1FBE1E770B5054690F8FC0174
:1027A0000C4603280DD1207901280AD8D5F8140247
:1027B000826828469047E08830B92846FFF7A9FB91
:1027C00002E02846FFF773FB002070BD7047000051
:1027D00000487047340400202DE9F047CC780A788F
:1027E00048F68F1334B1012C6DD0022C08D0032C85
:1027F00013D10BE030F822401C4044F400730AE08F
:1028000030F822401C4020F8224006E030F82240F8
:102810001C4044F4C06320F822300C7830F8245077
:1028200048F68F72154048F280031D43254320F877
:1028300024508D7A48F6BF7904274BF68F7A48F2F8
:10284000C0044CF28006EDB30D7830F825C048F294
:1028500080180CEA020C4CEA080C20F825C0CD8840
:10286000B0F850C025F0010591F800800CEBC80CC1
:1028700000EB4C0CCCF800540D89B0F850C025F09A
:10288000010591F8008007EBC807674400EB470794
:10289000C7F800544D78002D0D7830F825704FEAB8
:1028A00047477DD0002F05DA30F8257017403743B1
:1028B00020F825700D7830F825707F0608D530F89F
:1028C000257001E024E01DE01740274320F8257023
:1028D0000C7830F824501540354320F824500C78FB
:1028E00030F8242002EA09021A4320F824200A784A
:1028F00030F8221001EA0A01194320F822100020C2
:10290000BDE8F08730F822401C4044F4806382E741
:102910004D78F5B18D88B0F8506025F001050F783D
:1029200006EBC70600EB4606C6F800540D7830F8F3
:102930002560760605D530F825601640264320F838
:1029400025600A7830F8221001EA090181F020019F
:10295000D2E78C88B0F8505024F0010491F800C000
:1029600007EBCC073D4400EB4505C5F80044B0F843
:1029700050400D78062707EBC5052C4400EB4407B3
:102980000C694FF6FF7C07F580673E2C0CD9C4F329
:102990004F15E40601D16D1EADB20CEA852400E0AE
:1029A0001EE044F4004407E0C4F34F05E40701D0FF
:1029B0006D1CADB20CEA85243C600C7830F82450D4
:1029C0006D0405D530F824501540354320F82450C7
:1029D0000A7830F8221001EA0A0181F440518BE7AD
:1029E000002F05DA30F825701740374320F825709E
:1029F0000D7830F82560760605D530F8256016404C
:102A0000264320F825600E7830F8265015402543DF
:102A100020F826500C7830F8242002EA0A0282F4CA
:102A200040521A4320F824200A7830F8221001EA94
:102A3000090161E7002070472DE9F04391F80A8011
:102A400091F801C00A7848F6BF774BF68F7948F2C3
:102A5000800348F2C0054CF2800648F68F74B8F146
:102A6000000F2ED0BCF1000F30F822C04FEA4C4CC2
:102A70004ED0BCF1000F07DA30F822C00CEA040C8B
:102A80004CEA060C20F822C00A7830F822C05FEA2F
:102A90004C6C07D530F822C00CEA040C4CEA050C4B
:102AA00020F822C00A7830F822502540354320F81B
:102AB00022500C7830F824203A401A4320F8242081
:102AC0001BE0BCF1000F0ED030F82260760605D571
:102AD00030F8226026402E4320F822600A7830F831
:102AE000221039400EE030F822506D0405D530F840
:102AF00022502540354320F822500A7830F8221021
:102B000001EA0901194320F822100020BDE8F083F2
:102B1000BCF1000F07DA30F822C00CEA040C4CEAD2
:102B2000060C20F822C00A7830F82260760605D517
:102B300030F8226026402E4320F822600E7830F8CC
:102B4000262022402A4320F826200C7830F8242022
:102B500002EA09021A4320F82420BFE70020704748
:102B60000020704700B50121A0F840100021A0F816
:102B70004010A0F84410A0F8501000F03AF90020DE
:102B800000BD30F8401F21F43D4101800020704716
:102B90000020704730B54D780A78002D48F68F74C4
:102BA00030F8225048F2800312D06D0607D530F875
:102BB0002250254048F2C004254320F822500A78CC
:102BC00030F8221048F6BF74214081F0300111E046
:102BD0006D0407D530F8225025404CF2800425437F
:102BE00020F822500A7830F822104BF68F742140DA
:102BF00081F44051194320F82210002030BD10B557
:102C00000A7848F2800352B14978002930F822103E
:102C100010D048F6BF74214081F010010FE0018808
:102C20004BF6BF72114081F4805181F010011943BD
:102C3000018007E04BF68F74214081F480511943E5
:102C400020F82210002010BD2DE9F0410D46064667
:102C5000896995F801C00023AA7A022728690C46E1
:102C600048F28008BCF1010F05D0814252D90446D8
:102C7000081AA8614FE0814203D90446081AA861E6
:102C800000E0AB617AB1287836F820104906B6F832
:102C9000501007EBC000084406EB4000C0F80044A9
:102CA00012D52A8911E0A3B2AA883046696900F0DA
:102CB000C8F8B6F85000297807EBC101084406EBC4
:102CC0004000C0F800441CE0EA88A3B230466969BD
:102CD00000F0B7F8687848F68F7110B1012807D076
:102CE0000FE0287836F820200A4048F2C00105E0BD
:102CF000287836F820200A404CF280010A4326F852
:102D00002020297836F8210048F6BF72104080F064
:102D1000300067E0AB6106234FF6FF701AB1BCF1DB
:102D2000000F1BD056E0B6F850102A783E2C03EB6B
:102D3000C202114406EB410202F5806239D9C4F3A4
:102D40004F11E30632D000BF00EA812040F400407A
:102D500002E000BF00EA812010603BE0B6F85010AE
:102D60002A783E2C07EBC202114406EB410202F521
:102D700080620BD9C4F34F115FEAC46C01D1491EC4
:102D800089B200EA812141F4004108E0C4F34F0117
:102D90005FEAC47C01D0491C89B200EA812111603C
:102DA00069780029BFD001290AD013E0491E89B2F1
:102DB000CAE7C4F34F01E307CCD0491C89B2C9E785
:102DC000B6F85000297807EBC101084406EB400033
:102DD000C0F80044297836F821004BF68F72104075
:102DE00080F4405040EA080026F821000020BDE8A9
:102DF000F08130F8401F41F43F41018000207047CE
:102E00000148FDF7DABC000054060020B0F8440089
:102E1000704700005B1C00EB42005B0800F580601F
:102E200006D000BF30F8042B21F8022B5B1EF9D12D
:102E300070470020704711B98021A0F84C10002085
:102E4000704710B55B1C00EB42005B0800F580602A
:102E500009D011F8012B5B1E11F8014B42EA042244
:102E600020F8042BF5D110BDFEE7FEE702E008C80C
:102E7000121F08C1002AFAD170477047002001E0F4
:102E800001C1121F002AFBD17047000027480068CB
:102E9000274908614A6942404A61930504D5830580
:102EA00002D48B685B1E8B60D30503D5C30501D4A8
:102EB00020238B60130604D5030602D48B685B1CA9
:102EC0008B6053060AD5430608D4CB689B1E002BA3
:102ED00002DDCB689B1E00E00023CB60D30603D548
:102EE000C30601D40823CB6012070AD5020708D411
:102EF000CA68921C802A02DCCA68921C00E0802208
:102F0000CA6048618A680868824203DB8A68486848
:102F1000824200DD88608A684FF08040C262896822
:102F200001EBD1714910416370470000080C01406A
:102F30000000002086B0FDF799FAFEF7EBFC2C4864
:102F4000816941F020018161816901F020010491D2
:102F5000816941F004018161816901F004010491FA
:102F6000816941F0080181618069002400F0080056
:102F700004904FF47670CDE9000401200290694678
:102F80001C48FDF787F9FEF76DFAFEF7DBFAFEF74E
:102F9000ABFA19494FF461600860174808300460C3
:102FA000001D046015480068C16841F00101C1605E
:102FB00000211248FEF73AFA104800214030FEF78F
:102FC00035FA00210E4BFF25002003EB811214542B
:102FD000401C4028FBDB491C15706429F4DB42F2DD
:102FE0000E742046401EFDD2FFF750FFF9E70000A7
:102FF00000100240000C01402C2C014090010020E8
:10300000B40C002080000000000000000000000060
:1030100001020304060708093830000800000020F8
:10302000900100006C0100080431000890010020AC
:10303000A82A00007C2E000832192360EA322032D0
:10304000085AFF0113491F1B0879041A85041AAD99
:10305000041AD9041A29041A55041704030904127E
:1030600001140202021640830440572602010203A3
:103070000113CD011B08C9041AC5041AF104B27466
:10308000191F11821084A24A04130A0632022A4030
:10309000201C0902434B111CC032091F1B01020BEB
:1030A000130524161001052401100901042402024D
:1030B000052406170107058203081C100904813244
:1030C0000A1D07050102432C070581070938442A18
:1030D00040072A8107112B0907440A2204440A16D3
:1030E000FF4413051D1408731C1B08E108411AAFA7
:1030F0000C1A31041A4504C12AED2419041AF904E2
:043100001AD50400D8
:04000005080000ED02
:00000001FF
